:0300000002000EED
:0C000E00787FE4F6D8FD758115020055DE
:100155000A0C3F065B4F666D7D077F6F0208000046
:10016600438901758CFC758A18D2A9D2AFD28C222C
:0500030012016680FE01
:03000B0002009A56
:10009A00C0E0C0F0C0D075D000C000C004C005C028
:0300AA0006C00786
:1000AD00758CFC758A18AE08AF097C037DE81201CA
:1000BD00008E0A8F0BAE08AF097C037DE81201009C
:1000CD00ED4C7016C3E5099410E5089427500B7597
:1000DD0090FE740C250BF8E6F5800509E509700214
:0200ED00050804
:1000EF00D007D006D005D004D000D0D0D0F0D0E0CB
:0100FF0032CE
:10001A00020003E493A3F8E493A34003F68001F2F9
:10002A0008DFF48029E493A3F85407240CC8C333E7
:10003A00C4540F4420C8834004F456800146F6DFB6
:10004A00E4800B0102040810204080900155E47EF0
:10005A00019360BCA3FF543F30E509541FFEE493AB
:10006A00A360010ECF54C025E060A840B8E493A372
:10007A00FAE493A3F8E493A3C8C582C8CAC583CA9D
:10008A00F0A3C8C582C8CAC583CADFE9DEE780BE55
:010165000099
:10010000BC000BBE0029EF8DF084FFADF022E4CCE3
:10011000F875F008EF2FFFEE33FEEC33FCEE9DECAC
:10012000984005FCEE9DFE0FD5F0E9E4CEFD22EDF2
:10013000F8F5F0EE8420D21CFEADF075F008EF2F3C
:10014000FFED33FD4007985006D5F0F222C398FD2D
:050150000FD5F0EA22CA
:00000001FF
