:0300000002018A70
:0C018A00787FE4F6D8FD75812A0201D1CF
:10033000060AFEFDFBF7EFDF0A113F065B4F666D15
:100340007D077F6F061B01020304050601220001E1
:10035000240001090001080001100001210001230F
:070360000001250001260049
:04042D007F017E00CD
:100431007D647C00C3EE648094804007EF1F70F4FC
:0E0441001E80F1ED1D70011CBCFFE9BDFFE641
:01044F00228A
:10029D00E4F527F528AF28740A2FF8E6F590E52840
:1002AD00640145276008E52864034527700F741B1A
:1002BD002FF8E62411F8E64480F580800C741B2598
:1002CD0028F8E62411F8E6F58012042D0528E52816
:1002DD0070020527C39406E5276480948040B622FA
:10000E00752900752A14E4F527F528AF28740A2FF0
:10001E00F8E6F590E528640145276008E5286403B5
:10002E004527700F741B2FF8E62411F8E64480F56F
:10003E0080800C741B2528F8E62411F8E6F5801252
:10004E00042D0528E52870020527C39406E52764CC
:10005E0080948040B6E52A152A70021529D3E52A28
:10006E009400E52964809480509C752900752A14AB
:10007E00E4F527F528E522B52809E4B5270575909E
:10008E00FF8008740A2528F8E6F590E528640145F6
:10009E00276008E528640345277010741B2528F88F
:1000AE00E62411F8E64480F580800C741B2528F8B0
:1000BE00E62411F8E6F58012042D0528E5287002D5
:1000CE000527C39406E5276480948040A8E52A1589
:1000DE002A70021529D3E52A9400E52964809480BC
:0300EE00508E220F
:10040300758901758C0B758ADC75A883D288D28CAB
:100413001200F112021612039D120471E5247005F5
:0A04230012029D80EB12000E80E62D
:100368007BFF7A00900000E5A0F4602412042DE5DC
:10037800A0F4601CAFA0AB07C3E5829414E58364C6
:10038800809480500BE5A0F4600612042DA380E849
:04039800AE02AF03FF
:01039C00223E
:1002ED00EE703FEF2411603724F8602824FC60176E
:1002FD0024FE600B14702BE52460276325FF22E597
:10030D0024601F6326FF22E5246017E52264056043
:10031D0011052222E524600AE522600615222263DA
:03032D0024FF2288
:10039D00E52175F00A84F51BE52175F00A8485F0D9
:1003AD001CE51075F00A84F51DE51075F00A8485BD
:1003BD00F01EE50875F00A84F51FE50875F00A844E
:0403CD0085F0202275
:10047100E508B43C05E4F5080510E510B43C05E4D5
:0D048100F5100521E521B41803E4F5212252
:03000B000204509C
:10045000C0E0C0D0C28C758C0B758ADCD28C0523B1
:10046000E523C3941040057523000508D0D0D0E0E3
:010470003259
:1000F100E5257003020186E522146023146036149D
:10010100604614605914606924057079E521C3942F
:100111000A400474F6800274142521F5218066E4F6
:10012100C39521500BE521C3940A50041521805534
:100131007521098050E510C3940A400474F68002C9
:1001410074322510F510803DE4C39510500BE51075
:10015100C3940A50041510802C7510098027E508F6
:10016100C3940A400474F6800274322508F50880AD
:1001710014E4C39508500BE508C3940A500415080C
:090181008003750809E4F525224C
:10021600E526700302029CE52214601F1460301468
:10022600603C14604D14605924057067740A2521DA
:10023600F521C3941E405C74E2800E0521E521750C
:10024600F00A84E5F0704C74F62521F5218044749B
:100256000A2510F510C3943C403974C4800E05106D
:10026600E51075F00A84E5F0702974F62510F5108E
:100276008021740A2508F508C3943C401674C4808E
:100286000E0508E50875F00A84E5F0700674F62593
:0702960008F508E4F526223B
:030003000203D124
:1003D100C0E0C083C082C0D075D000C002C003C0DD
:1003E10004C005C006C0071203681202EDD007D091
:1003F10006D005D004D003D002D0D0D082D083D093
:02040100E032E7
:10019600020403E493A3F8E493A34003F68001F278
:1001A60008DFF48029E493A3F85407240CC8C3336A
:1001B600C4540F4420C8834004F456800146F6DF39
:1001C600E4800B0102040810204080900330E47E96
:1001D600019360BCA3FF543F30E509541FFEE4932E
:1001E600A360010ECF54C025E060A840B8E493A3F5
:1001F600FAE493A3F8E493A3C8C582C8CAC583CA20
:10020600F0A3C8C582C8CAC583CADFE9DEE780BED7
:010367000095
:00000001FF
