:03000000020003F8
:0C000300787FE4F6D8FD75811302004AF6
:0C00DE000A083F065B4F666D7D077F6FD0
:0400C7007F647E00D4
:1000CB00D3EF9400EE648094804007EF1F70F11E15
:0200DB0080EEB5
:0100DD002200
:10008F007590FE7580061200C77590FD7580DB12A6
:10009F0000C77590FB75804F1200C77590F775807C
:1000AF00E61200C77590EF75806D1200C77590DF6F
:0800BF0075807D1200C780C8A6
:10000F0002008FE493A3F8E493A34003F68001F278
:10001F0008DFF48029E493A3F85407240CC8C333F2
:10002F00C4540F4420C8834004F456800146F6DFC1
:10003F00E4800B01020408102040809000DEE47E73
:10004F00019360BCA3FF543F30E509541FFEE493B6
:10005F00A360010ECF54C025E060A840B8E493A37D
:10006F00FAE493A3F8E493A3C8C582C8CAC583CAA8
:10007F00F0A3C8C582C8CAC583CADFE9DEE780BE60
:0100EA000015
:00000001FF
