:030000000208B73C
:0C08B700787FE4F6D8FD75810902080086
:0808C300FEFDFBF7EFDFBF7F34
:0C089500E5089008C393F5807FF47E0115
:1008A100EF1FAA0670011E4A600BE4FDEDC3947DA3
:0508B10050EE0D80F780
:0108B600221F
:10085E0020A00F7F0A7E001208A130A0F3750901B7
:10086E0080EE20A10F7F0A7E001208A130A1F37541
:10087E00090280EE20A20F7F0A7E001208A130A28C
:07088E00F375090380EE225F
:1008000012085EE50924FE6020146036240270F0B0
:10081000E4F508E508C3940850E612085EE509B45B
:1008200001DE120895050880EA750808E508D394EA
:100830000040CD12085EE509B402C51208951508FE
:1008400080EAE4F508E508C3940850B412085EE5B0
:0E08500009640370AB1208950508050880E7DF
:00000001FF
