:03000000020003F8
:0C000300787FE4F6D8FD75811102004AF8
:0C0125000A083F065B4F666D7D077F6F88
:10008F007590FD7580DB7FF47E011200C07590FBCB
:10009F0075804F7FF47E011200C07590F77580E672
:1000AF007FF47E011200C07590EF75806D7FF47E36
:0100BF00013F
:1000C000D3EF9400EE648094804007EF1F70F11E20
:0200D00080EEC0
:0100D200220B
:1000FC007590FE7580061200BC12008F7590DF752E
:09010C00807D7FF47E010200C039
:1001150012008F7590DF75807D7FF47E010200C02F
:1000D3007D0A7C001200FCED1D70011CED4C70F4D8
:1000E3007C007D0AD3ED9400EC6480948040E1129F
:0900F3000115ED1D70EE1C80EBFF
:10000F000200D3E493A3F8E493A34003F68001F234
:10001F0008DFF48029E493A3F85407240CC8C333F2
:10002F00C4540F4420C8834004F456800146F6DFC1
:10003F00E4800B0102040810204080900125E47E2B
:10004F00019360BCA3FF543F30E509541FFEE493B6
:10005F00A360010ECF54C025E060A840B8E493A37D
:10006F00FAE493A3F8E493A3C8C582C8CAC583CAA8
:10007F00F0A3C8C582C8CAC583CADFE9DEE780BE60
:0101310000CD
:00000001FF
