:03000000020800F3
:0C080000787FE4F6D8FD758111020847EE
:0C0932000A083F065B4F666D7D077F6F73
:10088C001208AA7590FB850B801208AA7590F7E5E3
:0E089C000C2480F5801208AA7590EF850D805F
:1008AA00E4FDFCC3ED9FEE6480F8EC64809850157B
:1008BA00E4FBFA0BBB00010AEB64784A70F50DBD44
:0508CA0000010C80DEBE
:0108CF002206
:1008F7007590FE8509807F057E001208AA7590FD18
:10090700E50A2480F58012088C7590DF850E800239
:0209170008AA2C
:100919007590FDE50A2480F5807F057E0012088C1C
:090929007590DF850E800208AA1A
:1008D0009000001208F7A3E582640A458370F4E4EF
:1008E000F583F582C3E582940AE5836480948050A1
:0708F000DF120919A380EDDE
:10080C000208D0E493A3F8E493A34003F68001F22A
:10081C0008DFF48029E493A3F85407240CC8C333ED
:10082C00C4540F4420C8834004F456800146F6DFBC
:10083C00E4800B0102040810204080900932E47E11
:10084C00019360BCA3FF543F30E509541FFEE493B1
:10085C00A360010ECF54C025E060A840B8E493A378
:10086C00FAE493A3F8E493A3C8C582C8CAC583CAA3
:10087C00F0A3C8C582C8CAC583CADFE9DEE780BE5B
:01093E0000B8
:00000001FF
