:030000000208797A
:0C087900787FE4F6D8FD7581070208685E
:03000300020800F0
:10080000C0E0C0F0C083C082C0D075D000C000C0BE
:1008100001C002C003C004C005C006C00720B20F5B
:100820007F0A7E0012084A20B205B29030B2FDD095
:1008300007D006D005D004D003D002D001D000D01C
:0A084000D0D082D083D0F0D0E03297
:10086800D29075880175A8817FB87E0B12084A80DE
:01087800F788
:10084A00D3EF9400EE940040147D827C00ED1D707D
:0D085A00011CED4C70F7EF1F70E61E80E3EF
:01086700226E
:00000001FF
