:030000000208F7FC
:0C08F700787FE4F6D8FD75810902080046
:08090300FEFDFBF7EFDFBF7FF3
:0C08D500E50890090393F5807FF47E0194
:1008E100EF1FAA0670011E4A600BE4FDEDC3947D63
:0508F10050EE0D80F740
:0108F60022DF
:10089E0020A00F7F0A7E001208E130A0F375090137
:1008AE0080EE20A10F7F0A7E001208E130A1F375C1
:1008BE00090280EE20A20F7F0A7E001208E130A20C
:0708CE00F375090380EE221F
:10080000D28875A88112089EE50924FE6020146034
:1008100036240270F0E4F508E508C3940850E612A7
:10082000089EE509B401DE1208D5050880EA7508BE
:1008300008E508D3940040CD12089EE509B402C52E
:100840001208D5150880EAE4F508E508C3940850B5
:10085000B412089EE509640370AB1208D5050805BB
:030860000880E726
:030003000208638D
:10086300C0E0C0F0C083C082C0D075D000C000C05B
:1008730001C002C003C004C005C006C007120000C7
:10088300D007D006D005D004D003D002D001D000C9
:0B089300D0D0D082D083D0F0D0E03273
:00000001FF
