:10050800022F0000020C000002310000023300003C
:10051800023500000208000002150000022D00004C
:100528000114000A173F065B4F666D7D077F6F0653
:070538000EFEFDFBF7EFDFF3
:0405C9007F017E0030
:1005CD00D3EF9400EE6480948040147DE87C03EDBD
:0F05DD001D70011CED4C70F7EF1F70E41E80E1E4
:0105EC0022EC
:03000B000205A447
:1005A400C0E0C0D0C28C758C0B758ADCD28C05146B
:1005B400E514B4100B7514000509E509700205086B
:0505C400D0D0D0E032B0
:1004C100C3E509943BE50864809480400DE4F50898
:1004D100F5090516E51670020515C3E516943BE509
:1004E1001564809480400DE4F515F516052EE52E72
:1004F1007002052DC3E52E9417E52D64809480408C
:0705010005E4F52DF52E22A3
:10025E00AE2DAF2E7C007D0A1204368E218F22AE7B
:10026E002DAF2E7C007D0A1204368C238D24AE1504
:10027E00AF167C007D0A1204368E258F26AE15AF82
:10028E00167C007D0A1204368C278D28AE08AF0925
:10029E007C007D0A1204368E298F2AAE08AF097CA7
:1002AE00007D0A1204368C2B8D2C753300753405A7
:1002BE00E4F531F532AF32740E2FF8E6F590E532F3
:1002CE00640145316008E532640345317012EF2553
:1002DE00E02421F808E62417F8E64480F580800F24
:1002EE00E53225E02421F808E62417F8E6F5801219
:1002FE0005C90532E53270020531C39406E5316455
:10030E0080948040B0E534153470021533D3E53453
:10031E009400E533648094805096850A33850B34BF
:10032E00D3E5349400E53364809480406EE4F53177
:10033E00F532E530B5320AE52FB531057590FF80FF
:10034E0008740E2532F8E6F590E532640145316009
:10035E0008E532640345317013E53225E02421F8B7
:10036E0008E62417F8E64480F580800FE53225E094
:10037E002421F808E62417F8E6F5801205C905329F
:10038E00E53270020531C39406E5316480948040F5
:0C039E00A1E5341534700215338085226F
:100540007BFF7A00900000E5A0F460241205C9E565
:10055000A0F4601CAFA0AB07C3E5829414E58364EC
:10056000809480500BE5A0F460061205C9A380E8D2
:04057000AE02AF0325
:010574002264
:10000E00EE600302025DEF2411700302014324F837
:10001E00605124FC602924FE600F14600302025D0F
:10002E00B28C630DFF630CFF220530E530700205C4
:10003E002F6406452F600302025DF52FF53022E591
:10004E000D450C700302025DE53015307002152F60
:10005E00E530F47003E52FF4600302025DF52F75B1
:10006E00300522E50D450C700302025DE52F60039D
:10007E0002025DE530146019146030146050146093
:10008E006F1470030201212405600302025D020158
:10009E00BB052EE52E7002052DE52464094523606F
:1000AE000302025DF523F524020192740A2516F56A
:1000BE0016E43515F515E52664054525600302029F
:1000CE005DF525F526E52E152E7047152D22051604
:1000DE00E51670020515E52864094527600302023E
:1000EE005DF527F52874F62516F51674FF02020441
:1000FE00740A2509F509E43508F508E52A6405456D
:10010E0029600302025DF529F52AE516151670021F
:10011E001515220509E50970020508E52C64094547
:10012E002B600302025DF52BF52C74F62509F509FB
:10013E0074FF020245E50D450C700302025DE52FCA
:10014E00600302025DE53014604D14606C147003A0
:10015E000201EA14700302020914700302024A2417
:10016E0005600302025DC3E52E940AE52D648094BA
:10017E0080500474148038D3E52E940AE52D6480E3
:10018E009480400A74F6252EF52E74FF8026E52EF7
:10019E00152E7002152D22E52E152E7002152DE549
:1001AE00244523600302025DF523752409740A2594
:1001BE002EF52EE4352DF52D2274F62516F5167432
:1001CE00FF3515F515E5264525600302025DF5257B
:1001DE00752605743C2516F516E4801AE5161516D7
:1001EE0070021515E52845277065F52775280974E1
:1001FE000A2516F516E43515F51522C3E509940AF8
:10020E00E50864809480400C74F62509F50974FFA6
:10021E003508F508E52A45297035F529752A05C3EF
:10022E00E509940AE50864809480500474328002D3
:10023E00740A2509F509E43508F50822E5091509BA
:10024E0070021508E52C452B7005F5087509092275
:1005750075A883758901758C0B758ADCD28C12057B
:100585004012000E1204C112025EE50D450C600812
:0F059500750A00750B0680E6E4F50AF50B80DFAA
:030000000203AA4E
:0C03AA00787FE4F6D8FD7581360203F17F
:10043600C2D5EC30E709B2D5E4C39DFDE49CFCEEE1
:1004460030E715B2D5E4C39FFFE49EFE12046CC3E9
:10045600E49DFDE49CFC800312046C30D507C3E4E4
:060466009FFFE49EFE2250
:1003B600020575E493A3F8E493A34003F68001F2E3
:1003C60008DFF48029E493A3F85407240CC8C33348
:1003D600C4540F4420C8834004F456800146F6DF17
:1003E600E4800B0102040810204080900508E47E9A
:1003F600019360BCA3FF543F30E509541FFEE4930C
:10040600A360010ECF54C025E060A840B8E493A3D2
:10041600FAE493A3F8E493A3C8C582C8CAC583CAFD
:10042600F0A3C8C582C8CAC583CADFE9DEE780BEB5
:01053F0000BB
:10046C00BC000BBE0029EF8DF084FFADF022E4CC74
:10047C00F875F008EF2FFFEE33FEEC33FCEE9DEC3D
:10048C00984005FCEE9DFE0FD5F0E9E4CEFD22ED83
:10049C00F8F5F0EE8420D21CFEADF075F008EF2FCD
:1004AC00FFED33FD4007985006D5F0F222C398FDBE
:0504BC000FD5F0EA225B
:00000001FF
