:0300000002088F64
:0C088F00787FE4F6D8FD758109020800AE
:10087A00750827750910E509150970021508E509B3
:05088A00450870F22298
:1008000020A007B28012087A80F620A10D12087A83
:1008100020A102B28120A1E880FB20A20D12087A5B
:1008200020A202B28220A2D880FB20A30D12087A57
:1008300020A302B28320A3C880FB20A40D12087A53
:1008400020A402B28420A4B880FB20A50D12087A4F
:1008500020A502B28520A5A880FB20A60D12087A4B
:1008600020A602B28620A69880FB20A79312087AC1
:0A08700020A702B28720A78880FBB2
:00000001FF
