:03000000020006F5
:0C000600787FE4F6D8FD75810D02004DF6
:0C015000020C00FF02080000020A00FE82
:10014000C3EE648094804007EF1F70F41E80F1229C
:0300030002009266
:10009200C0E0C0D075D000C006C007A2A0E433659E
:1000A2000D7002E50C605F7F017E00120140A2A08C
:1000B200E433650D7002E50C604CAFA0EF240560DF
:1000C2002624FE601A14703EE50B64FE450A603673
:1000D200E50BF4FFE50AF4A2E713FEEF13802063B9
:1000E20009FF6308FF801FE50B648F450A6017E56F
:1000F2000BF4FFE50AF4FEEF25E0FFEE33FEEFF42A
:0F010200F50BEEF4F50AD007D006D0D0D0E032DE
:10011100D28875A881E50C450D24FF92A0850B803E
:10012100E509450860F77F017E00120140E50945B8
:0F0131000860EA7580FF7F147E0012014080DEB7
:10001200020111E493A3F8E493A34003F68001F2F2
:1000220008DFF48029E493A3F85407240CC8C333EF
:10003200C4540F4420C8834004F456800146F6DFBE
:10004200E4800B0102040810204080900150E47EFD
:10005200019360BCA3FF543F30E509541FFEE493B3
:10006200A360010ECF54C025E060A840B8E493A37A
:10007200FAE493A3F8E493A3C8C582C8CAC583CAA5
:10008200F0A3C8C582C8CAC583CADFE9DEE780BE5D
:01015C0000A2
:00000001FF
