:020000040800F2
:10000000180400204501000865050008FB040008ED
:1000100061050008B9010008990A00080000000005
:1000200000000000000000000000000009070008B8
:1000300055030008000000001106000849080008E8
:100040005F0100085F0100085F0100085F01000810
:100050005F0100085F0100085F0100085F01000800
:100060005F0100085F0100085F0100085F010008F0
:100070005F0100085F0100085F0100085F010008E0
:100080005F0100085F0100085F0100085F010008D0
:100090005F0100085F0100085F0100085F010008C0
:1000A0005F0100085F0100085F0100085F010008B0
:1000B0005F0100085F0100085F0100085F010008A0
:1000C0005F0100085F0100085F0100085F01000890
:1000D0005F0100085F0100085F0100085F01000880
:1000E0005F0100085F0100085F0100085F01000870
:1000F0005F0100085F0100085F0100085F01000860
:100100005F0100085F0100085F0100085F0100084F
:100110005F0100085F0100085F0100085F0100083F
:100120005F0100085F0100085F0100085F0100082F
:10013000DFF80CD000F02EF800480047550C0008FE
:10014000180400200648804706480047FEE7FEE7FF
:10015000FEE7FEE7FEE7FEE7FEE7FEE7FEE7FEE777
:100160004D0800083101000830B50B46014600205B
:100170002022012409E021FA02F59D4205D303FA69
:1001800002F5491B04FA02F52844151EA2F10102EA
:10019000F1DC30BD064C074D06E0E06840F001039D
:1001A00094E8070098471034AC42F6D3FFF7C4FF39
:1001B000500D0008700D000800BFFEE708B50121D2
:1001C000082000F027FA4FF40070ADF8000010206E
:1001D0008DF8030003208DF802006946014800F005
:1001E000F4F808BD000C014010B5FFF7E7FF4FF42D
:1001F0000071024800F07FF910BD0000000C0140C2
:1002000008B54FF40070ADF8000048208DF80300E9
:100210006946024800F0D9F808BD0000000C014012
:1002200008B54FF40070ADF8000010208DF8030001
:1002300003208DF802006946014800F0C6F808BDA9
:10024000000C014070B50025002427E000BF4FF4EA
:100250000071144800F044F90028F8D0282000F07C
:1002600099F84FF400710F4800F03AF901280ED1C7
:1002700000BF4FF400710B4800F032F90128F8D0AC
:10028000C4F1070101208840C0B2054304E0C4F175
:100290000701012088408543601CC4B2082CD5DBCF
:1002A000284670BD000C014010B50446FFF7B8FFAA
:1002B0004FF40071264800F01CF9122000F04CF8B1
:1002C0004FF40071224800F016F91E2000F062F889
:1002D000FFF796FF4FF400711D4800F001F988BB4D
:1002E00000BF4FF400711A4800F0FAF80028F8D067
:1002F00000BF4FF40071164800F0F2F80128F8D062
:10030000FFF7A0FF6070FFF79DFF2070FFF79AFFD7
:10031000E070FFF797FFA070FFF794FF2071FFF7E1
:100320007FFF4FF400710A4800F0E5F8607821780B
:100330000844E1780844A17808442179884202D130
:10034000012010BD01E00020FBE70020F9E70000DC
:10035000000C01407047000070B504460C4800F0E6
:1003600049FA002508E000BF4FF0E020006900F4E2
:1003700080300028F8D06D1CA542F4D34FF0E02067
:10038000006920F001004FF0E021086170BD00001D
:100390004019010070B50446482000F02BFA0025F2
:1003A00008E000BF4FF0E020006900F48030002832
:1003B000F8D06D1CA542F4D34FF0E020006920F086
:1003C00001004FF0E021086170BD2DE9F0410246C7
:1003D00000250026002000230024002791F803C0F8
:1003E0000CF00F0591F803C00CF0100CBCF1000FDD
:1003F00003D091F802C04CEA050591F800C0BCF1A9
:10040000000F31D0146800202BE04FF0010C0CFAE3
:1004100000F3B1F800C00CEA03069E4220D183002D
:100420004FF00F0C0CFA03F7BC4305FA03FC4CEA3F
:10043000040491F803C0BCF1280F06D14FF0010C61
:100440000CFA00FCC2F814C00AE091F803C0BCF139
:10045000480F05D14FF0010C0CFA00FCC2F810C097
:10046000401C0828D1D31460B1F800C0BCF1FF0FC4
:1004700034DD546800202EE000F1080C4FF0010834
:1004800008FA0CF3B1F800C00CEA03069E4221D131
:1004900083004FF00F0C0CFA03F7BC4305FA03FC82
:1004A0004CEA040491F803C0BCF1280F05D100F117
:1004B000080C08FA0CF8C2F8148091F803C0BCF1DB
:1004C000480F07D100F1080C4FF0010808FA0CF8AA
:1004D000C2F81080401C0828CED35460BDE8F081DB
:1004E0000246002093680B400BB1012000E0002081
:1004F0007047416170470161704700BFFEE700002F
:1005000008B50121082000F085F82020ADF8000092
:1005100010208DF8030003208DF8020069460F4873
:10052000FFF753FF0120ADF8000069460B48FFF7C5
:100530004CFF0220ADF8000069460848FFF745FF70
:1005400020210648FFF7D7FF01210448FFF7D3FF1A
:1005500002210248FFF7CFFF08BD0000000C014058
:1005600000BFFEE7704708B54FF4C06000F046F8E2
:1005700025208DF8000001208DF801008DF8020083
:100580008DF80300684600F001F808BD70B5002141
:1005900000230F22C47804B3154C246804F4E064EB
:1005A000C4F5E064210AC1F10403CA40447804FAA6
:1005B00003F184781440214309010E4C0678A155BB
:1005C000047804F01F050124AC4005786D11AD00DE
:1005D00005F1E025C5F8004109E0047804F01F05A5
:1005E0000124AC40044D0678761145F8264070BDD4
:1005F0000CED00E000E400E080E100E0024901438E
:10060000024A1160704700000000FA050CED00E09E
:100610007047000029B1064A92690243044B9A616F
:1006200004E0034A92698243014B9A6170470000DB
:100630000010024030B500210022002400232D4D7F
:100640006D6805F00C0121B1042905D0082923D1DA
:1006500005E0294D056022E0274D05601FE0254D8E
:100660006D6805F47012234D6D6805F48034022521
:1006700005EB92421CB9214D554305600BE01D4D21
:100680006D6805F400351DB11C4D5543056002E051
:10069000194D5543056002E0174D056000BF00BFCE
:1006A000144D6D6805F0F0010909154D6B5C056886
:1006B000DD4045600F4D6D6805F4E061090A104D9D
:1006C0006B5C4568DD4085600A4D6D6805F46051DE
:1006D000C90A0B4D6B5C4568DD40C560054D6D6812
:1006E00005F44041890B074D6B5CC568B5FBF3F51C
:1006F000056130BD0010024000127A0000093D0083
:100700000000002010000020704710B500F002F833
:1007100010BD00000CB50020019000903348006827
:1007200040F480303149086000BF3048006800F470
:10073000003000900198401C0190009818B9019871
:10074000B0F5A06FF1D12948006800F4003010B175
:100750000120009001E0002000900098012843D182
:100760002348006840F010002149086008460068EE
:1007700020F0030008600846006840F002000860AE
:100780001A48406819494860084640684860084669
:10079000406840F4806048600846406820F47C105F
:1007A00048600846406840F4E81048600846006821
:1007B00040F08070086000BF0C48006800F00070D6
:1007C0000028F9D00948406820F003000749486034
:1007D0000846406840F00200486000BF0348406897
:1007E00000F00C000828F9D10CBD000000100240F8
:1007F0000020024030B50146B1F1807F01D30120D5
:1008000030BD21F07F40401E4FF0E0225061501774
:100810000F22002807DA13071D0E094B00F00F0402
:10082000241F1D5503E013071C0E064B1C5400BF6C
:1008300000204FF0E0229061072010610020DFE7E8
:1008400018ED00E000E400E07047000010B5134828
:10085000006840F0010011490860084640681049EE
:1008600008400E494860084600680E4908400B4998
:1008700008600846006820F4802008600846406848
:1008800020F4FE0048604FF41F008860FFF73DFF32
:100890004FF000600449086010BD000000100240E5
:1008A0000000FFF8FFFFF6FE08ED00E021B18289AD
:1008B00042F40052828104E082894DF6FF731A40AF
:1008C0008281704700B585B001210420FFF7A2FEA8
:1008D00001218803FFF79EFE4FF40070ADF8100071
:1008E00018208DF8130003208DF8120004A9174872
:1008F000FFF76BFD4FF48060ADF8100004208DF819
:10090000130004A91148FFF760FD4FF4E130009097
:100910000020ADF80400ADF80600ADF80800ADF811
:100920000C000C20ADF80A006946094800F044F8B4
:10093000FFF719FE012240F22551054800F017F893
:1009400001210348FFF7B2FF05B000BD00080140D8
:100950000038014002460020B1F5007F00D100BF01
:1009600013880B400BB1012000E000207047F0B568
:100970000346002400260025002040F66A17B942ED
:1009800000D100BF1846C1F3421401F01F06012731
:1009900007FA06F5012C01D10C3004E0022C01D13C
:1009A000103000E014301AB107682F43076002E0EE
:1009B0000768AF430760F0BD2DE9F04786B00546F4
:1009C0000E460024A24600BFA1460027B08900B110
:1009D00000BF2F462C8A4CF6FF700440F088044379
:1009E0002C82AC894EF6F3100440B088318908435C
:1009F000718908430443AC81AC8A4FF6FF40044040
:100A0000B0890443AC8201A8FFF714FE1F48874257
:100A100002D1DDF810A001E0DDF80CA0A88900F4F7
:100A2000004040B10AEBCA0000EB0A1031684900EF
:100A3000B0FBF1F807E00AEBCA0000EB0A103168DE
:100A40008900B0FBF1F86420B8FBF0F00401200944
:100A5000642101FB1089A88900F4004040B13220D4
:100A600000EBC900B0FBF1F000F00700044308E020
:100A7000322000EB09106421B0FBF1F000F00F0010
:100A800004432C8106B0BDE8F08700000038014027
:100A9000C1F308028280704700BFFEE70FB4054B28
:100AA00010B503A9044A029800F018F810BC5DF8CC
:100AB00014FB0000310C00081400002002E008C8FC
:100AC000121F08C1002AFAD170477047002001E0C8
:100AD00001C1121F002AFBD1704700002DE9FF4F12
:100AE00089B09B460446002506E025280BD05A46CF
:100AF0000B999047641C6D1C20780028F5D10DB02F
:100B00002846BDE8F08F0027B8460122474900E09B
:100B1000074314F8013F203B02FA03F00842F7D1E3
:100B200020782E2819D114F8010F47F004072A283D
:100B30000ED06FF02F022078A0F1300109290CD8D7
:100B400008EB880102EB410100EB0108641CF2E7AD
:100B50000A98641C50F8048B0A9020780028CED0A4
:100B6000642808D0692806D075281ED05A460B99EB
:100B700090476D1C58E00A994FF00A0901C90A9183
:100B8000002802DA40422D2102E0390504D52B214C
:100B90008DF82010012103E0F90704D02021F7E7A8
:100BA0008A4608AE0DE00021FAE70A994FF00A09DB
:100BB00001C90A91F7E74946FFF7D6FA303106F83E
:100BC000011D0028F7D1ADEB060000F120097807E0
:100BD00001D44FF00108C84502DDA8EB090000E090
:100BE00000208046002706E008A85A46C05D0B9901
:100BF00090476D1C7F1C5745F6DB04E030205A46B9
:100C00000B9990476D1CB8F10001A8F10108F5DCC3
:100C100005E016F8010B5A460B9990476D1CB9F187
:100C20000001A9F10109F4DC641C65E70928010051
:100C300070B504460D46E1B20548FFF729FF00BF35
:100C400080210348FFF786FE0028F9D0204670BDBA
:100C5000003801401CB5FFF753FC20201B490860F9
:100C60000120091D08600220091F0860FFF72AFE05
:100C700017A0FFF713FFFFF7B7FA26E06846FFF764
:100C800013FB012811D11BA0FFF708FF9DF80220DC
:100C90009DF803101CA0FFF701FF9DF800209DF8B0
:100CA00001101EA0FFF7FAFE0BE021A0FFF7F6FEF1
:100CB00020200649091D08600120091F0860022044
:100CC00008604FF4FA60FFF747FBD7E7100C0140CC
:100CD0000D0A20444854313120CEC2CAAAB6C8B445
:100CE000ABB8D0C6F7B2E2CAD4CAB5D1E9200D0A72
:100CF000000000000D0A20CEC2CAAAB6C8B6C1C8FC
:100D0000A1B3C9B9A60D0A000D0A20CEC2B6C8A368
:100D1000BA2025642E25642043A1E3000D0A20CAD1
:100D2000AAB6C8A3BA2025642E2564252500000094
:100D30000D0A20CEC2CAAAB6C8B6C1C8A1CAA7B0F9
:100D4000DCA3ACCAB5D1E9CAA7B0DC200D0A00000B
:100D5000700D00080000002018000000BC0A000808
:100D6000880D00081800002000040000CC0A0008CC
:100D70000000000001020304010203040607080941
:080D8000020406080000000057
:0400000508000131BD
:00000001FF
