:030000000200FA01
:0C00FA00787FE4F6D8FD75810702000352
:0400E6007F647E00B5
:1000EA00C3EE648094805007EF1F70F41E80F122E3
:10008D00AD07AC06D2801200EAC280D281AF05AEB8
:10009D00041200EAC281D282AF05AE041200EAC298
:1000AD0082D283AF05AE041200EAC283D284AF05BB
:1000BD00AE041200EAC284D285AF05AE041200EA86
:1000CD00C285D286AF05AE041200EAC286D287AFD2
:0900DD0005AE041200EAC28722FC
:100003007FC87E0012008D20A00D1200E620A00202
:10001300B28020A0EB80FB20A10D1200E620A102FC
:10002300B28120A1DB80FB20A20D1200E620A202F8
:10003300B28220A2CB80FB20A30D1200E620A302F4
:10004300B28320A3BB80FB20A40D1200E620A402F0
:10005300B28420A4AB80FB20A50D1200E620A502EC
:10006300B28520A59B80FB20A60D1200E620A602E8
:10007300B28620A68B80FB20A7861200E620A7026B
:0A008300B28730A70302000380F8E3
:00000001FF
