:030000000201A555
:0C01A500787FE4F6D8FD7581220201ECA1
:1003390006080101050905070A0E3F065B4F666DB0
:100349007D077F6F061801020408102001200001B3
:050359001F00011E045D
:10039100D3EF9400EE94004007EF1F70F31E80F03E
:0103A1002239
:1003A20075A883758901D288758C0B758ADCD28C0D
:0103B2002228
:10037D001203A2E51F70031202EFE51FB401F41280
:04038D0000F080EF0D
:03000B0002029C52
:10029C00C0E0C0F0C083C082C0D075D000C000C028
:1002AC0001C002C003C004C005C006C007C28C75E3
:1002BC008C0B758ADCD28C0520E520B4100A7520D5
:1002CC0000E51F7003120231D007D006D005D00410
:1002DC00D003D002D001D000D0D0D082D083D0F0C7
:0302EC00D0E0322D
:10023100E50DC394095003050D22E50CC394055047
:1002410004050C8052E50BC394095004050B80444E
:10025100E50AC394055004050A8036E509C39409EB
:10026100500BE50DC39402500405098021E509C333
:1002710094035009E508B4020405098011E508C397
:100281009402500405088003E4F508E4F509E4F557
:0B0291000AE4F50BE4F50CE4F50D2287
:1002EF00E4F52174182521F8E6F4F590E521640171
:1002FF00600BE52164036005E521B4051074082542
:10030F0021F8E6240EF8E64480F580800C74082569
:10031F0021F8E6240EF8E6F5807FF47E01120391B2
:0A032F000521E521C3940640BA221F
:1000F000752232E4F52174182521F8E6F4F590E52F
:10010000216401600BE52164036005E521B405105D
:1001100074082521F8E6240EF8E64480F580800C6A
:1001200074082521F8E6240EF8E6F5807F327E007B
:100130001203910521E521C3940640BA1522E52258
:10014000D3940050AE752232E4F521E521B51E05A9
:100150007590FF800974182521F8E6F4F590E521E3
:100160006401600BE52164036005E521B4051074AA
:10017000082521F8E6240EF8E64480F580800C740A
:10018000082521F8E6240EF8E6F5807F327E00127D
:1001900003910521E521C3940640B01522E522D341
:0501A000940050A422B0
:02000600AFA0A9
:0100080022D5
:10000E00BFFE0FE51F6005E4F51F8006751F017525
:10001E001E05E51F640160030200EFBFFD09E51E2A
:10002E00C394055002051EBFFB09E51ED394004084
:10003E0002151EEF64F760030200E0E51E64036024
:10004E0005E51EB405127408251EF8E6C394095082
:10005E000306807EE4F6807AE51E64026005E51EE6
:10006E00B404127408251EF8E6C3940550030680E6
:10007E0061E4F6805DE51E6401701D7407251EF8AF
:10008E00E6C3940250127408251EF8E6C394095074
:10009E000306803EE4F6803AE51E6401701B740789
:1000AE00251EF8E6B402127408251EF8E6C3940362
:1000BE00500306801DE4F68019E51E7015740825A0
:1000CE001EF8E6FEC394025003068006EEB402024A
:1000DE00E4F6BFEF0C7408251EF8E6D39400400139
:0200EE001622D8
:0300030002035F96
:10035F00C0E0C0D075D000C000C006C007120006B4
:0E036F0012000ED007D006D000D0D0D0E03261
:1001B10002037DE493A3F8E493A34003F68001F2E4
:1001C10008DFF48029E493A3F85407240CC8C3334F
:1001D100C4540F4420C8834004F456800146F6DF1E
:1001E100E4800B0102040810204080900339E47E72
:1001F100019360BCA3FF543F30E509541FFEE49313
:10020100A360010ECF54C025E060A840B8E493A3D9
:10021100FAE493A3F8E493A3C8C582C8CAC583CA04
:10022100F0A3C8C582C8CAC583CADFE9DEE780BEBC
:01035E00009E
:00000001FF
