:03000000020800F3
:0C080000787FE4F6D8FD758111020847EE
:0C090D000A083F065B4F666D7D077F6F98
:10088C007590FE8509807FE87E03EF1F70011EEFD7
:10089C004E70F77590FDE50A2480F5807E037FE8A5
:1008AC00EF1F70011EEF4E70F77590FB850B807E6D
:1008BC00037FE8EF1F70011EEF4E70F77590F7E5A0
:1008CC000C2480F5807E037FE8EF1F70011EEF4E35
:1008DC0070F77590EF850D807E037FE8EF1F700138
:1008EC001EEF4E70F77590DF850E807E037FE8D388
:1008FC00EF9400EE648094804086EF1F70F11E80B0
:01090C00EEFC
:10080C0002088CE493A3F8E493A34003F68001F26E
:10081C0008DFF48029E493A3F85407240CC8C333ED
:10082C00C4540F4420C8834004F456800146F6DFBC
:10083C00E4800B010204081020408090090DE47E36
:10084C00019360BCA3FF543F30E509541FFEE493B1
:10085C00A360010ECF54C025E060A840B8E493A378
:10086C00FAE493A3F8E493A3C8C582C8CAC583CAA3
:10087C00F0A3C8C582C8CAC583CADFE9DEE780BE5B
:0109190000DD
:00000001FF
