:10044600010803010A32012217011100060BFEFD05
:10045600FBF7EFDF0A123F065B4F666D7D077F6F86
:0F046600012300010905012400012900012A00DA
:040476007F017E0084
:10047A00D3EF9400EE6480948040147DE87C03ED11
:0F048A001D70011CED4C70F7EF1F70E41E80E138
:010499002240
:10011A00E4F527F528D3E5289400E5276480948040
:10012A004059E4F525F526AF26740B2FF8E6F5902D
:10013A00E526640145256008E52664034525700F18
:10014A00741C2FF8E62412F8E64480F580800C74BB
:10015A001C2526F8E62412F8E6F580120476052610
:10016A00E52670020525C39406E52564809480403F
:10017A00B6E5281528709E1527809A7527008509E7
:10018A0028D3E5289400E527648094804067E4F545
:10019A0025F526E523B52609E4B525057590FF80E2
:1001AA0008740B2526F8E6F590E5266401452560D6
:1001BA0008E526640345257010741C2526F8E624F4
:1001CA0012F8E64480F580800C741C2526F8E62493
:1001DA0012F8E6F5801204760526E5267002052552
:1001EA00C39406E5256480948040A8E52815287004
:0601FA00901527808C2205
:1003AB007BFF7A00900000E5A0F46024120476E550
:1003BB00A0F4601CAFA0AB07C3E5829414E5836483
:1003CB00809480500BE5A0F46006120476A380E8BD
:0403DB00AE02AF03BC
:0103DF0022FB
:10036800EE703FEF2411603724F8602824FC6017F2
:1003780024FE600B14702BE52460276329FF22E517
:1003880024601F632AFF22E5246017E523640560C3
:1003980011052322E524600AE5236006152322635C
:0303A80024FF220D
:1003E000E52275F00A84F51CE52275F00A8485F093
:1003F0001DE50A75F00A84F51EE50A75F00A848584
:10040000F01FE50875F00A84F520E50875F00A8408
:0404100085F0212230
:1004D900E508B43C17E4F508050AE50AB43C0DE45F
:0D04E900F50A0522E522B41803E4F52222ED
:03000B000204BB31
:1004BB00C0E0C0D0758901758C0B758ADC0511E520
:0E04CB0011B410050508751100D0D0D0E03234
:10000E00E5297003020116E52314602D14606414B3
:10001E0060751470030200CD1470030200E0240515
:10002E006003020116E522C3940A400474F68002AE
:10003E0074142522F522020116E522D39409401BE1
:10004E001522E52224F7FFE434FFFE7C007D0A1220
:10005E000313ED7006740A2522F522E4C39522508F
:10006E000CE522C3940A50051522020116752209C9
:10007E00020116E50AC3940A400474F68002743233
:10008E00250AF50A020116E50AD39409401B150A42
:10009E00E50A24F7FFE434FFFE7C007D0A12031309
:1000AE00ED7006740A250AF50AE4C3950A500BE5AD
:1000BE000AC3940A5004150A804E750A098049E550
:1000CE0008C3940A400474F6800274322508F508B9
:1000DE008036E508D39409401B1508E50824F7FF80
:1000EE00E434FFFE7C007D0A120313ED7006740AE1
:1000FE002508F508E4C39508500BE508C3940A508B
:0C010E000415088003750809E4F5292297
:10028C00E52A7003020312E52314601F1460301476
:10029C00603C14604D14605924057067740A252263
:1002AC00F522D3941E405C74E2800E0522E5227583
:1002BC00F00A84E5F0704C74F62522F52280447423
:1002CC000A250AF50AC3943C403974C4800E050A09
:1002DC00E50A75F00A84E5F0702974F6250AF50A2A
:1002EC008021740A2508F508C3943C401674C48018
:1002FC000E0508E50875F00A84E5F0700674F6251D
:07030C0008F508E4F52A22C0
:10049A00758901758C0B758ADC75A883D288D28C14
:1004AA0012000E12028C1203E01204D912011A80F1
:0104BA00EF52
:03000300020414E0
:10041400C0E0C083C082C0D075D000C002C003C099
:1004240004C005C006C0071203AB120368D007D08E
:1004340006D005D004D003D002D0D0D082D083D04F
:02044400E032A4
:03000000020200F9
:0C020000787FE4F6D8FD75812A020247E1
:10031300BC000BBE0029EF8DF084FFADF022E4CCCE
:10032300F875F008EF2FFFEE33FEEC33FCEE9DEC97
:10033300984005FCEE9DFE0FD5F0E9E4CEFD22EDDD
:10034300F8F5F0EE8420D21CFEADF075F008EF2F27
:10035300FFED33FD4007985006D5F0F222C398FD18
:050363000FD5F0EA22B5
:10020C0002049AE493A3F8E493A34003F68001F26A
:10021C0008DFF48029E493A3F85407240CC8C333F3
:10022C00C4540F4420C8834004F456800146F6DFC2
:10023C00E4800B0102040810204080900446E47E08
:10024C00019360BCA3FF543F30E509541FFEE493B7
:10025C00A360010ECF54C025E060A840B8E493A37E
:10026C00FAE493A3F8E493A3C8C582C8CAC583CAA9
:10027C00F0A3C8C582C8CAC583CADFE9DEE780BE61
:010475000086
:00000001FF
